:100000000C942A000C9434000C9434000C943400AA
:100010000C9434000C9434000C9434000C94340090
:100020000C9434000C9434000C9434000C94340080
:100030000C9434000C9434000C9434000C94340070
:100040000C9434000C9434000C9434000C94340060
:100050000C94340011241FBECFE5D4E0DEBFCDBF29
:100060000E9480000C94F2000C94000087B384611D
:1000700087BBC49881B3806C81BB969881B3806341
:1000800081BB82B3806382BB089587B3846187BBE1
:10009000C49881B3806C81BB969881B3806381BB27
:1000A00082B3806382BB0895C49AC298979A969847
:1000B0000895C29AC498969A97980895C29AC49837
:1000C000979A96980895C49AC298969A9798089580
:1000D00088B3846188BB82B3806C82BB0895F89436
:1000E00087B3846187BBC49881B3806C81BB9698C9
:1000F00081B3806381BB82B3806382BB78940895AF
:100100000E946F0020E931E0C49AC298979A9698AD
:1001100080E197E2F9013197F1F70197D9F788B3B8
:10012000846188BB82B3806C82BB88E893E1F9016B
:100130003197F1F70197D9F7C29AC498969A979890
:1001400080E197E2F9013197F1F70197D9F788B388
:10015000846188BB82B3806C82BB88E893E1F9013B
:100160003197F1F70197D9F7C29AC498979A969860
:1001700080E197E2F9013197F1F70197D9F788B358
:10018000846188BB82B3806C82BB88E893E1F9010B
:100190003197F1F70197D9F7C49AC298969A979830
:1001A00080E197E2F9013197F1F70197D9F788B328
:1001B000846188BB82B3806C82BB88E893E1F901DB
:1001C0003197F1F70197D9F788B3846188BB82B37F
:1001D000806C82BB80E197E2F9013197F1F70197DA
:0801E000D9F792CFF894FFCF8C
:00000001FF
