:100000000C942A000C9447000C9447000C94470071
:100010000C9447000C9447000C9447000C94470044
:100020000C9447000C9447000C9447000C94470034
:100030000C9447000C9447000C9447000C94470024
:100040000C9447000C9447000C9447000C94470014
:100050000C94470011241FBECFE5D4E0DEBFCDBF16
:1000600010E0A0E6B0E0ECEBF3E002C005900D92EA
:10007000AE37B107D9F710E0AEE7B0E001C01D928E
:10008000AA38B107E1F70E94AB010C94DC010C9493
:10009000000084B38F6784BB85B3807485BB0895EB
:1000A00084B38F6784BB85B3807485BB089520EAD1
:1000B0003FE0C9010197F1F7A898A99848E145BB2D
:1000C000AA9A80E29EE4FC013197F1F7AA98F9011F
:1000D0003197F1F7A898A99845BBAA9AFC013197E6
:1000E000F1F7AA98F9013197F1F7A898A99845BBBB
:1000F000AA9A0197F1F7AA98C9010197F1F7A89870
:10010000A99880E185BBAA9AC9010197F1F7AA983D
:10011000089595B3977895BB25B3982F907F9695C2
:10012000922B95BBA898A998AA9A20E23EE4F901DF
:100130003197F1F7AA988F7095B3977895BB95B3DF
:10014000880F880F880F982B95BBA898A998AA9A12
:10015000C9010197F1F7AA98089580EA9FE00197F5
:10016000F1F788E20E94890081E00E94890086E020
:100170000E9489008EE00E94890080E80E94890028
:10018000089595B3977895BB25B3982F907F959553
:10019000922B95BBA89AA998AA9A20E23EE4F9016D
:1001A0003197F1F7AA988F70880F880F880F95B351
:1001B000977895BB95B3982B95BBA89AA998AA9ABE
:1001C000C9010197F1F7AA98089580E80E94890073
:1001D0000895CF93DF93EC0103C00E94C1002196E4
:1001E00088818823D1F7DF91CF910895823069F01B
:1001F00083301CF48130A9F405C0833049F0843089
:1002000081F40BC0862F815805C0862F815402C00F
:10021000862F8D560E9489000895862F8D520E9448
:10022000890008950F931F93CF93DF938A01E9010B
:10023000882311F0662319F40E94E50002C00E9491
:10024000F600C530D10571F4C80160E177E20E9483
:10025000C801CB01C09690937F0080937E000E94DE
:10026000C10005C0C430D10511F080E016C0C8013E
:1002700068EE73E00E94C801CB0160938000909308
:1002800081006AE070E00E94C801C09690938900E6
:10029000809388000E94C10081E0C330D10521F025
:1002A000813011F080E016C0C80164E670E00E9461
:1002B000C801CB0160938000909381006AE070E0F8
:1002C0000E94C801C09690938500809384000E948C
:1002D000C10081E0C230D10521F0813011F080E011
:1002E00016C0C8016AE070E00E94C801CB016093AB
:1002F0008000909381006AE070E00E94C801C0967F
:1003000090938300809382000E94C10081E0C130FD
:10031000D10511F0813061F4C8016AE070E00E94FB
:10032000C801C09690938700809386000E94C10008
:1003300026971CF085E40E94C100DF91CF911F91A8
:100340000F910895F89484B38F6784BB85B380744C
:1003500085BB78940895F89484B38F6784BB85B384
:10036000807485BB78940E9457000E94AD0081E0A4
:1003700063E00E94F60080E690E00E94E90082E0DF
:1003800061E00E94F6008CE690E00E94E900EFCF69
:10039000AA1BBB1B51E107C0AA1FBB1FA617B707AB
:1003A00010F0A61BB70B881F991F5A95A9F78095C7
:0C03B0009095BC01CD010895F894FFCF9A
:1003BC004649524520424952442035004E4558206A
:0E03CC00524F424F5449435320494E440000C3
:00000001FF
