:100000000C9498000C94B9000C94B9000C94B900AD
:100010000C94B9000C948D0C0C94620C0C94B900E7
:100020000C94B9000C94B9000C94B9000C94B9006C
:100030000C94B9000C94B9000C94B9000C94B9005C
:100040000C94B9000C94B9000C94B9000C94B9004C
:100050000C94B9000C94B9000C94B9000C94B9003C
:100060000C94B9000C94B9000C94B9000C94B9002C
:100070000C94B9000C94B9000C94B9000C94B9001C
:100080000C94B9000C94B9000C94B9000C94B9000C
:100090000C94B9000C94B9000C94B9000C94B900FC
:1000A0000C94B9000C94B9000C94B9000C94B900EC
:1000B0000C94B9000C94B9000C94B9000C94B900DC
:1000C0000C94B9000C94B9000C94B9000C94B900CC
:1000D0000C94B9000C94B9000C94B9000C94B900BC
:1000E0000C94B900084AD73B3BCE016E84BCBFFDDF
:1000F000C12F3D6C74319ABD56833DDA3D00C77FF8
:1001000011BED9E4BB4C3E916BAAAABE0000008090
:100110003F05A84CCDB2D44EB93836A9020C50B91F
:10012000918688083CA6AAAA2ABE000000803F004B
:1001300011241FBECFEFD1E2DEBFCDBF00E00CBF68
:1001400012E0A0E0B2E0E8E6F1E300E00BBF02C09D
:1001500007900D92A030B107D9F712E0A0E0B2E00D
:1001600001C01D92AA32B107E1F70E9420150C943C
:10017000B2180C9400000F931F93CF93DF93CDB769
:10018000DEB7C057D0400FB6F894DEBF0FBECDBF6C
:1001900080E090E0A0E8BFE389839A83AB83BC83CF
:1001A00069817A818B819C8126E636E646E655E4B4
:1001B0000E94CA17DC01CB018D839E83AF83B88771
:1001C00011E06D817E818F81988520E030E040E8EC
:1001D0005FE30E940F1688230CF010E0112329F032
:1001E00081E090E09A87898746C011E06D817E8129
:1001F0008F81988520E03FEF4FE757E40E94BF17BB
:1002000018160CF010E0112361F169817A818B815D
:100210009C8120E030E040E251E40E94CA17DC01FA
:10022000CB01BC01CD010E948316DC01CB019A8772
:10023000898712C080E791E09C878B878B859C859E
:100240008C01C8010197F1F78C011C870B87898508
:100250009A8501979A87898789859A85009751F7AA
:1002600017C06D817E818F8198850E948316DC0185
:10027000CB019A87898789859A859E878D878D8509
:100280009E858C01F8013197F1F78F011E870D874C
:1002900088E290E028E230E0F90120812E7FFC0125
:1002A000208388E290E028E230E0F90120812D7F70
:1002B000FC01208388E290E020E3FC01208388E2B7
:1002C00090E028E230E0F90120812460FC012083E5
:1002D00080E090E0A0EAB0E48F87988BA98BBA8B7E
:1002E0006F85788989899A8926E636E646E655E457
:1002F0000E94CA17DC01CB018B8B9C8BAD8BBE8B14
:1003000011E06B897C898D899E8920E030E040E88E
:100310005FE30E940F1688230CF010E0112329F0F0
:1003200081E090E0988F8F8B46C011E06B897C89CB
:100330008D899E8920E03FEF4FE757E40E94BF1769
:1003400018160CF010E0112361F16F857889898906
:100350009A8920E030E040E251E40E94CA17DC01B3
:10036000CB01BC01CD010E948316DC01CB01988F2B
:100370008F8B12C080E791E09A8F898F898D9A8D3B
:100380008C01C8010197F1F78C011A8F098F8F89B1
:10039000988D0197988F8F8B8F89988D009751F743
:1003A00017C06B897C898D899E890E948316DC0128
:1003B000CB01988F8F8B8F89988D9C8F8B8F8B8D96
:1003C0009C8D8C01F8013197F1F78F011C8F0B8FF9
:1003D00088E290E028E230E0F90120812B7FFC01E7
:1003E000208380E090E0A0E8BFE38D8F9E8FAF8FE9
:1003F000B8A36D8D7E8D8F8D98A126E636E646E6F4
:1004000055E40E94CA17DC01CB0189A39AA3ABA3D0
:10041000BCA311E069A17AA18BA19CA120E030E0EE
:1004200040E85FE30E940F1688230CF010E01123D0
:1004300029F081E090E09EA38DA346C011E069A160
:100440007AA18BA19CA120E03FEF4FE757E40E94E7
:10045000BF1718160CF010E0112361F16D8D7E8D21
:100460008F8D98A120E030E040E251E40E94CA174D
:10047000DC01CB01BC01CD010E948316DC01CB0164
:100480009EA38DA312C080E791E098A78FA38FA1B0
:1004900098A58C01C8010197F1F78C0118A70FA34B
:1004A0008DA19EA101979EA38DA38DA19EA10097D2
:1004B00051F717C069A17AA18BA19CA10E94831654
:1004C000DC01CB019EA38DA38DA19EA19AA789A734
:1004D00089A59AA58C01F8013197F1F78F011AA728
:1004E00009A788E290E028E230E0F90120812E7F20
:1004F000FC01208388E290E028E230E0F9012081CD
:100500002D7FFC01208388E290E020E3FC01208322
:1005100088E290E028E230E0F90120812460FC01CB
:10052000208380E090E0A0EAB0E48BA79CA7ADA771
:10053000BEA76BA57CA58DA59EA526E636E646E65C
:1005400055E40E94CA17DC01CB018FA798ABA9AB79
:10055000BAAB11E06FA578A989A99AA920E030E08B
:1005600040E85FE30E940F1688230CF010E011238F
:1005700029F081E090E09CAB8BAB46C011E06FA509
:1005800078A989A99AA920E03FEF4FE757E40E9494
:10059000BF1718160CF010E0112361F16BA57CA5B4
:1005A0008DA59EA520E030E040E251E40E94CA17EC
:1005B000DC01CB01BC01CD010E948316DC01CB0123
:1005C0009CAB8BAB12C080E791E09EAB8DAB8DA94D
:1005D0009EA98C01C8010197F1F78C011EAB0DABF0
:1005E0008BA99CA901979CAB8BAB8BA99CA900976D
:1005F00051F717C06FA578A989A99AA90E948316F7
:10060000DC01CB019CAB8BAB8BA99CA998AF8FABCA
:100610008FA998AD8C01F8013197F1F78F0118AFD0
:100620000FAB88E290E028E230E0F90120812B7FD7
:10063000FC01208380E090E0A0E8BFE389AF9AAF9F
:10064000ABAFBCAF69AD7AAD8BAD9CAD26E636E6FF
:1006500046E655E40E94CA17DC01CB019E01235CEB
:100660003F4FF90180839183A283B38311E0CE01D0
:10067000CD96FC01608171818281938120E030E020
:1006800040E85FE30E940F1688230CF010E011236E
:1006900049F0CE018F5B9F4F21E030E0FC013183B8
:1006A00020836EC011E0CE01CD96FC016081718186
:1006B0008281938120E03FEF4FE757E40E94BF170C
:1006C00018160CF010E0112309F449C069AD7AAD99
:1006D0008BAD9CAD20E030E040E251E40E94CA17AF
:1006E000DC01CB018E010F5B1F4FBC01CD010E94CD
:1006F0008316DC01CB01F8019183808327C0CE01F2
:100700008D5B9F4F20E731E0FC0131832083CE01D8
:100710008D5B9F4FFC01808191818C01C801019705
:10072000F1F78C01CE018D5B9F4FFC01118300839B
:10073000CE018F5B9F4F9E012F5B3F4FF9012081C0
:10074000318121503040FC0131832083CE018F5B09
:100750009F4FFC0180819181009789F62EC08E0108
:100760000F5B1F4FCE01CD96FC01608171818281AC
:1007700093810E948316DC01CB01F8019183808371
:10078000CE018B5B9F4F9E012F5B3F4FF901208174
:100790003181FC0131832083CE018B5B9F4FFC01B3
:1007A000808191818C01C8010197F1F78C01CE0104
:1007B0008B5B9F4FFC011183008388E290E028E26D
:1007C00030E0F90120812E7FFC01208388E290E057
:1007D00028E230E0F90120812D7FFC01208388E2AE
:1007E00090E020E3FC01208388E290E028E230E002
:1007F000F90120812460FC0120839E01295B3F4F89
:1008000080E090E0A0EAB0E4F90180839183A283C4
:10081000B3838E01055B1F4FCE01895B9F4FFC01A7
:10082000608171818281938126E636E646E655E451
:100830000E94CA17DC01CB01F80180839183A28357
:10084000B383CE01855B9F4F11E0FC016081718114
:100850008281938120E030E040E85FE30E940F1640
:1008600088230CF010E0112349F0CE01815B9F4FEB
:1008700021E030E0FC013183208374C0CE01855B30
:100880009F4F11E0FC01608171818281938120E0A2
:100890003FEF4FE757E40E94BF1718160CF010E027
:1008A000112309F44DC0CE01895B9F4FFC0160818B
:1008B00071818281938120E030E040E251E40E9426
:1008C000CA17DC01CB018E01015B1F4FBC01CD01BA
:1008D0000E948316DC01CB01F8019183808327C03D
:1008E000CE018F5A9F4F20E731E0FC0131832083F6
:1008F000CE018F5A9F4FFC01808191818C01C801EC
:100900000197F1F78C01CE018F5A9F4FFC011183A3
:100910000083CE01815B9F4F9E01215B3F4FF90118
:100920002081318121503040FC0131832083CE0170
:10093000815B9F4FFC0180819181009789F62FC0D8
:100940008E01015B1F4FCE01855B9F4FFC016081D3
:100950007181828193810E948316DC01CB01F801B1
:1009600091838083CE018D5A9F4F9E01215B3F4F23
:10097000F90120813181FC0131832083CE018D5A20
:100980009F4FFC01808191818C01C8010197F1F793
:100990008C01CE018D5A9F4FFC011183008388E2A8
:1009A00090E028E230E0F90120812B7FFC012083D8
:1009B0009E012B5A3F4F80E090E0A0E8BFE3F90191
:1009C00080839183A283B3838E01075A1F4FCE0188
:1009D0008B5A9F4FFC01608171818281938126E651
:1009E00036E646E655E40E94CA17DC01CB01F80161
:1009F00080839183A283B383CE01875A9F4F11E0F6
:100A0000FC01608171818281938120E030E040E8C7
:100A10005FE30E940F1688230CF010E0112349F0C9
:100A2000CE01835A9F4F21E030E0FC0131832083C7
:100A300074C0CE01875A9F4F11E0FC016081718123
:100A40008281938120E03FEF4FE757E40E94BF1778
:100A500018160CF010E0112309F44DC0CE018B5A8A
:100A60009F4FFC01608171818281938120E030E0A1
:100A700040E251E40E94CA17DC01CB018E01035A07
:100A80001F4FBC01CD010E948316DC01CB01F80190
:100A90009183808327C0CE01815A9F4F20E731E0A8
:100AA000FC0131832083CE01815A9F4FFC0180815C
:100AB00091818C01C8010197F1F78C01CE01815A17
:100AC0009F4FFC0111830083CE01835A9F4F9E01EB
:100AD000235A3F4FF9012081318121503040FC01E0
:100AE00031832083CE01835A9F4FFC018081918105
:100AF000009789F62FC08E01035A1F4FCE01875AE7
:100B00009F4FFC0160817181828193810E948316D5
:100B1000DC01CB01F80191838083CE018F599F4F77
:100B20009E01235A3F4FF90120813181FC0131831D
:100B30002083CE018F599F4FFC01808191818C01D0
:100B4000C8010197F1F78C01CE018F599F4FFC012D
:100B50001183008388E290E028E230E0F9012081EF
:100B60002E7FFC01208388E290E028E230E0F9014A
:100B700020812D7FFC01208388E290E020E2FC01AF
:100B8000208388E290E028E230E0F90120812460AF
:100B9000FC0120839E012D593F4F80E090E0A0EAA8
:100BA000B0E4F90180839183A283B3838E01095954
:100BB0001F4FCE018D599F4FFC0160817181828151
:100BC000938126E636E646E655E40E94CA17DC0124
:100BD000CB01F80180839183A283B383CE0189592D
:100BE0009F4F11E0FC01608171818281938120E03F
:100BF00030E040E85FE30E940F1688230CF010E01D
:100C0000112349F0CE0185599F4F21E030E0FC01CE
:100C10003183208374C0CE0189599F4F11E0FC01BC
:100C2000608171818281938120E03FEF4FE757E43B
:100C30000E94BF1718160CF010E0112309F44DC0E4
:100C4000CE018D599F4FFC0160817181828193811A
:100C500020E030E040E251E40E94CA17DC01CB0101
:100C60008E0105591F4FBC01CD010E948316DC0186
:100C7000CB01F8019183808327C0CE0183599F4F18
:100C800020E731E0FC0131832083CE0183599F4F5F
:100C9000FC01808191818C01C8010197F1F78C01E1
:100CA000CE0183599F4FFC0111830083CE018559EA
:100CB0009F4F9E0125593F4FF901208131812150DD
:100CC0003040FC0131832083CE0185599F4FFC01C8
:100CD00080819181009789F62FC08E0105591F4FA1
:100CE000CE0189599F4FFC0160817181828193817E
:100CF0000E948316DC01CB01F80191838083CE0131
:100D000081599F4F9E0125593F4FF9012081318123
:100D1000FC0131832083CE0181599F4FFC018081EA
:100D200091818C01C8010197F1F78C01CE018159A5
:100D30009F4FFC011183008388E290E028E230E0BD
:100D4000F90120812B7FFC012083C059DF4F0FB6B2
:100D5000F894DEBF0FBECDBFDF91CF911F910F91F1
:100D600008950F931F93CF93DF93CDB7DEB72E97E0
:100D70000FB6F894DEBF0FBECDBF80E090E0A0E8D4
:100D8000BFE389839A83AB83BC8369817A818B813A
:100D90009C8126E636E646E655E40E94CA17DC0149
:100DA000CB018D839E83AF83B88711E06D817E81F7
:100DB0008F81988520E030E040E85FE30E940F16C5
:100DC00088230CF010E0112329F081E090E09A874D
:100DD000898746C011E06D817E818F81988520E0F2
:100DE0003FEF4FE757E40E94BF1718160CF010E0D2
:100DF000112361F169817A818B819C8120E030E04F
:100E000040E251E40E94CA17DC01CB01BC01CD01D4
:100E10000E948316DC01CB019A87898712C080E784
:100E200091E09C878B878B859C858C01C8010197FD
:100E3000F1F78C011C870B8789859A8501979A8722
:100E4000898789859A85009751F717C06D817E81C2
:100E50008F8198850E948316DC01CB019A87898750
:100E600089859A859E878D878D859E858C01C80191
:100E70000197F1F78C011E870D8788E20E945707C2
:100E800081E00E94570786E00E9457078EE00E948B
:100E9000570780E80E9457072E960FB6F894DEBFDA
:100EA0000FBECDBFDF91CF911F910F9108950F938A
:100EB0001F93CF93DF93CDB7DEB76E970FB6F8943D
:100EC000DEBF0FBECDBF8E8F8E8D89838981807FDF
:100ED000898388E290E028E230E0F90120812F70D8
:100EE000FC01208388E290E028E230E0F9013081C3
:100EF0002981232BFC01208388E290E028E230E066
:100F0000F90120812E7FFC01208388E290E028E215
:100F100030E0F90120812D7FFC01208388E290E000
:100F200028E230E0F90120812460FC01208380E088
:100F300090E0A0EAB0E48A839B83AC83BD836A819E
:100F40007B818C819D8126E636E646E655E40E944B
:100F5000CA17DC01CB018E839F83A887B98711E074
:100F60006E817F818885998520E030E040E85FE3ED
:100F70000E940F1688230CF010E0112329F081E065
:100F800090E09B878A8746C011E06E817F818885CB
:100F9000998520E03FEF4FE757E40E94BF171816EE
:100FA0000CF010E0112361F16A817B818C819D81BD
:100FB00020E030E040E251E40E94CA17DC01CB019E
:100FC000BC01CD010E948316DC01CB019B878A877F
:100FD00012C080E791E09D878C878C859D858C0170
:100FE000C8010197F1F78C011D870C878A859B85C5
:100FF00001979B878A878A859B85009751F717C041
:101000006E817F81888599850E948316DC01CB01E2
:101010009B878A878A859B859F878E878E859F85FC
:101020008C01F8013197F1F78F011F870E8788E255
:1010300090E028E230E0F90120812B7FFC01208341
:101040008E8D8F708E8F8E8D8295807F8E8F88E2B1
:1010500090E028E230E0F90120812F70FC0120832C
:1010600088E290E028E230E0F90130812E8D232BD8
:10107000FC01208388E290E028E230E0F901208141
:101080002E7FFC01208388E290E028E230E0F90125
:1010900020812D7FFC01208388E290E028E230E06F
:1010A000F90120812460FC01208380E090E0A0EA27
:1010B000B0E4888B998BAA8BBB8B688979898A89E4
:1010C0009B8926E636E646E655E40E94CA17DC010F
:1010D000CB018C8B9D8BAE8BBF8B11E06C897D8996
:1010E0008E899F8920E030E040E85FE30E940F1680
:1010F00088230CF010E0112329F081E090E0998F13
:10110000888F46C011E06C897D898E899F8920E097
:101110003FEF4FE757E40E94BF1718160CF010E09E
:10112000112361F1688979898A899B8920E030E0FF
:1011300040E251E40E94CA17DC01CB01BC01CD01A1
:101140000E948316DC01CB01998F888F12C080E743
:1011500091E09B8F8A8F8A8D9B8D8C01C8010197AE
:10116000F1F78C011B8F0A8F888D998D0197998FCC
:10117000888F888D998D009751F717C06C897D896C
:101180008E899F890E948316DC01CB01998F888FFD
:10119000888D998D9D8F8C8F8C8D9D8D8C01F80104
:1011A0003197F1F78F011D8F0C8F88E290E028E2D4
:1011B00030E0F90120812B7FFC0120836E960FB671
:1011C000F894DEBF0FBECDBFDF91CF911F910F917D
:1011D00008950F931F93CF93DF93CDB7DEB76E972C
:1011E0000FB6F894DEBF0FBECDBF8E8F8E8D898374
:1011F0008981807F898388E290E028E230E0F901EC
:1012000020812F70FC01208388E290E028E230E00A
:10121000F90130812981232BFC01208388E290E0B1
:1012200028E230E0F90120812160FC01208388E27E
:1012300090E028E230E0F90120812D7FFC0120833D
:1012400088E290E028E230E0F90120812460FC018E
:10125000208380E090E0A0EAB0E48A839B83AC83A3
:10126000BD836A817B818C819D8126E636E646E6D8
:1012700055E40E94CA17DC01CB018E839F83A887A7
:10128000B98711E06E817F818885998520E030E003
:1012900040E85FE30E940F1688230CF010E0112352
:1012A00029F081E090E09B878A8746C011E06E813B
:1012B0007F818885998520E03FEF4FE757E40E94C2
:1012C000BF1718160CF010E0112361F16A817B81C1
:1012D0008C819D8120E030E040E251E40E94CA17F9
:1012E000DC01CB01BC01CD010E948316DC01CB01E6
:1012F0009B878A8712C080E791E09D878C878C85C9
:101300009D858C01C8010197F1F78C011D870C8721
:101310008A859B8501979B878A878A859B8500970D
:1013200051F717C06E817F81888599850E94831649
:10133000DC01CB019B878A878A859B859F878E8767
:101340008E859F858C01F8013197F1F78F011F87FA
:101350000E8788E290E028E230E0F90120812B7FBF
:10136000FC0120838E8D8F708E8F8E8D8295807F75
:101370008E8F88E290E028E230E0F90120812F7022
:10138000FC01208388E290E028E230E0F90130811E
:101390002E8D232BFC01208388E290E028E230E0B0
:1013A000F90120812160FC01208388E290E028E29D
:1013B00030E0F90120812D7FFC01208388E290E05C
:1013C00028E230E0F90120812460FC01208380E0E4
:1013D00090E0A0EAB0E4888B998BAA8BBB8B6889DC
:1013E00079898A899B8926E636E646E655E40E9495
:1013F000CA17DC01CB018C8B9D8BAE8BBF8B11E0B0
:101400006C897D898E899F8920E030E040E85FE328
:101410000E940F1688230CF010E0112329F081E0C0
:1014200090E0998F888F46C011E06C897D898E8904
:101430009F8920E03FEF4FE757E40E94BF1718163F
:101440000CF010E0112361F1688979898A899B8900
:1014500020E030E040E251E40E94CA17DC01CB01F9
:10146000BC01CD010E948316DC01CB01998F888FCE
:1014700012C080E791E09B8F8A8F8A8D9B8D8C01B3
:10148000C8010197F1F78C011B8F0A8F888D998D08
:101490000197998F888F888D998D009751F717C084
:1014A0006C897D898E899F890E948316DC01CB011E
:1014B000998F888F888D998D9D8F8C8F8C8D9D8D28
:1014C0008C01F8013197F1F78F011D8F0C8F88E2A5
:1014D00090E028E230E0F90120812B7FFC0120839D
:1014E0006E960FB6F894DEBF0FBECDBFDF91CF91E1
:1014F0001F910F910895CF93DF93CDB7DEB780E8AA
:101500000E945707DF91CF910895CF93DF930F92F9
:101510000F92CDB7DEB79A8389830BC089819A81F8
:10152000FC0180810E94E90889819A8101969A8351
:10153000898389819A81FC018081882379F70F90C2
:101540000F90DF91CF910895CF93DF930F920F9279
:10155000CDB7DEB789836A838981882F90E0823096
:10156000910599F08330910524F48130910541F083
:101570001BC08330910571F08430910581F014C057
:101580008A8181580E94570710C08A8181540E9425
:1015900057070BC08A818D560E94570706C08A8163
:1015A0008D520E94570701C000000F900F90DF91ED
:1015B000CF910895CF93DF93CDB7DEB727970FB6BE
:1015C000F894DEBF0FBECDBF8A836B835D834C83EF
:1015D0003F832E8319828A81882319F08B81882387
:1015E00019F40E947B0A04C08A816B810E94A40ABC
:1015F0008E819F818530910519F089818130B1F408
:101600008C819D8120E137E2B9010E949E189B01E7
:10161000C901C09690931B0280931A0280911A020E
:1016200090911B020E94E90881E089838E819F814D
:101630008430910519F08981813019F58C819D8163
:1016400028EE33E0B9010E949E189B01C9019093D6
:101650001D0280931C0280911C0290911D022AE0C1
:1016600030E0B9010E949E18C096909329028093A1
:10167000280280912802909129020E94E90881E0C5
:1016800089838E819F818330910519F08981813012
:1016900019F58C819D8124E630E0B9010E949E18E5
:1016A0009B01C90190931D0280931C0280911C0232
:1016B00090911D022AE030E0B9010E949E18C09668
:1016C0009093250280932402809124029091250218
:1016D0000E94E90881E089838E819F818230910593
:1016E00019F08981813019F58C819D812AE030E0E3
:1016F000B9010E949E189B01C90190931D0280931D
:101700001C0280911C0290911D022AE030E0B90178
:101710000E949E18C096909322028093210280918D
:101720002102909122020E94E90881E089838E8142
:101730009F818130910519F08981813091F48C81EC
:101740009D812AE030E0B9010E949E18C0969093D6
:1017500027028093260280912602909127020E9400
:10176000E9088E819F81863091051CF085E40E94F6
:10177000E90827960FB6F894DEBF0FBECDBFDF9104
:10178000CF910895CF93DF93CDB7DEB781E290E09C
:1017900021E230E0F90120812F60FC01208382E208
:1017A00090E022E230E0F9012081207FFC012083DB
:1017B0008AE091E02AE031E0F90120812861FC0112
:1017C00020838BE091E02BE031E0F901208128615A
:1017D000FC012083DF91CF910895CF93DF93CDB7A4
:1017E000DEB78DE290E02DE230E0F90120812F7E1E
:1017F000FC0120838EE290E02EE230E0F9012081AE
:101800002061FC012083DF91CF910895CF93DF9376
:10181000CDB7DEB78DE290E02DE230E0F901208116
:101820002F7DFC0120838EE290E02EE230E0F90172
:1018300020812062FC012083DF91CF910895CF9316
:10184000DF93CDB7DEB70E94C20B0E94ED0B0E9462
:10185000060CDF91CF910895CF93DF93CDB7DEB71C
:10186000F8948AE690E02AE630E0F90120812260CF
:10187000FC0120838DE390E02DE330E0F90120812D
:101880002061FC0120837894DF91CF910895CF935C
:10189000DF93CDB7DEB7F8948AE690E02AE630E031
:1018A000F90120812860FC0120838DE390E02DE385
:1018B00030E0F90120812062FC0120837894DF91DF
:1018C000CF9108951F920F920FB60F9211248F930C
:1018D0009F93AF93BF93CF93DF93CDB7DEB7809144
:1018E000040290910502A0910602B09107020196B0
:1018F000A11DB11D8093040290930502A0930602DE
:10190000B0930702DF91CF91BF91AF919F918F91DB
:101910000F900FBE0F901F9018951F920F920FB649
:101920000F9211248F939F93AF93BF93CF93DF9325
:10193000CDB7DEB78091000290910102A091020222
:10194000B09103020196A11DB11D809300029093F6
:101950000102A0930202B0930302DF91CF91BF91E5
:10196000AF919F918F910F900FBE0F901F90189580
:10197000CF93DF930F920F92CDB7DEB78A83198290
:101980008A818F708A8382E290E0FC018081898362
:101990008981807F898399818A81892B898382E2E9
:1019A00090E02981FC0120830F900F90DF91CF916F
:1019B0000895CF93DF93CDB7DEB786E00E94B80CD1
:1019C000DF91CF910895CF93DF93CDB7DEB789E054
:1019D0000E94B80CDF91CF910895CF93DF93CDB7DC
:1019E000DEB785E00E94B80CDF91CF910895CF93C8
:1019F000DF93CDB7DEB78AE00E94B80CDF91CF91BC
:101A00000895CF93DF93CDB7DEB784E00E94B80C82
:101A1000DF91CF910895CF93DF93CDB7DEB782E00A
:101A20000E94B80CDF91CF910895CF93DF93CDB78B
:101A3000DEB781E00E94B80CDF91CF910895CF937B
:101A4000DF93CDB7DEB788E00E94B80CDF91CF916D
:101A50000895CF93DF93CDB7DEB780E00E94B80C36
:101A6000DF91CF910895CF93DF93CDB7DEB78FE0AD
:101A70000E94B80CDF91CF910895CF93DF93CDB73B
:101A8000DEB72A970FB6F894DEBF0FBECDBF9A8798
:101A9000898780E090E0DC0189839A83AB83BC83F3
:101AA0001D821E821F82188689859A85CC01A0E03E
:101AB000B0E0BC01CD010E94AF16DC01CB01BC013E
:101AC000CD0128E431EE42E850E40E941616DC0114
:101AD000CB0189839A83AB83BC8369817A818B81B3
:101AE0009C810E948316DC01CB01CC01A0E0B0E018
:101AF0008D839E83AF83B8871092040210920502F3
:101B00001092060210920702109200021092010237
:101B1000109202021092030201C000002091040200
:101B200030910502409106025091070271E08D81CB
:101B30009E81AF81B885281739074A075B0708F4EB
:101B400070E0209100023091010240910202509118
:101B5000030261E08D819E81AF81B8852817390726
:101B60004A075B0708F460E0872F862B8823A9F2D9
:101B700000000E94290D2A960FB6F894DEBF0FBE12
:101B8000CDBFDF91CF910895CF93DF93CDB7DEB76F
:101B90002A970FB6F894DEBF0FBECDBF9A8789870C
:101BA00080E090E0DC0189839A83AB83BC831D8253
:101BB0001E821F82188689859A85CC01A0E0B0E03C
:101BC000BC01CD010E94AF16DC01CB01BC01CD01EF
:101BD00025EE30ED4AEA50E40E941616DC01CB01F6
:101BE00089839A83AB83BC8369817A818B819C8151
:101BF0000E948316DC01CB018D839E83AF83B8875F
:101C0000109204021092050210920602109207022E
:101C100001C00000209104023091050240910602AB
:101C2000509107028D819E81AF81B88582179307FD
:101C3000A407B50770F700000E94290D2A960FB679
:101C4000F894DEBF0FBECDBFDF91CF910895CF9343
:101C5000DF930F920F92CDB7DEB789836A8388E254
:101C600091E02981FC0120838AE291E02A81FC0134
:101C700020830F900F90DF91CF910895CF93DF9342
:101C80000F920F92CDB7DEB79A8389838FEF6FEFF4
:101C90000E94270E0E94D90C89819A810E94C40D4E
:101CA0000E94330D0F900F90DF91CF910895CF9345
:101CB000DF930F920F92CDB7DEB79A8389830E948C
:101CC000E30C89819A810E94C40D0F900F90DF91DF
:101CD000CF910895CF93DF930F920F92CDB7DEB7D8
:101CE0009A8389830E94ED0C89819A810E943D0D1F
:101CF0000F900F90DF91CF910895CF93DF930F92C4
:101D00000F92CDB7DEB79A8389830E94F70C898141
:101D10009A810E943D0D0F900F90DF91CF91089511
:101D2000CF93DF930F920F92CDB7DEB79A8389835B
:101D30000E94010D89819A81880F991F9A83898356
:101D400089819A810E943D0D0F900F90DF91CF9174
:101D50000895CF93DF930F920F92CDB7DEB79A839A
:101D600089830E940B0D89819A81880F991F9A831C
:101D7000898389819A810E943D0D0F900F90DF9198
:101D8000CF910895CF93DF930F920F92CDB7DEB727
:101D90009A8389830E94150D89819A81880F991FE2
:101DA0009A83898389819A810E943D0D0F900F90BB
:101DB000DF91CF910895CF93DF930F920F92CDB71C
:101DC000DEB79A8389830E941F0D89819A81880FCB
:101DD000991F9A83898389819A810E943D0D0F9072
:101DE0000F90DF91CF910895CF93DF93CDB7DEB7FA
:101DF000F8940E941F0C0E942C0C0E94470C7894AF
:101E0000DF91CF910895CF93DF93CDB7DEB784E212
:101E100090E024E230E0F90120812062FC0120837F
:101E200085E290E025E230E0F90120812062FC01AA
:101E30002083DF91CF910895CF93DF93CDB7DEB7A5
:101E400084E290E024E230E0F90120812064FC018A
:101E5000208385E290E025E230E0F90120812064D2
:101E6000FC012083DF91CF910895CF93DF93CDB70D
:101E7000DEB784E290E024E230E0F90120812068BE
:101E8000FC01208385E290E025E230E0F901208129
:101E90002068FC012083DF91CF910895CF93DF93D9
:101EA000CDB7DEB70E94030F0E941C0F0E94350FB2
:101EB000DF91CF910895CF93DF93CDB7DEB781E85F
:101EC00090E0FC01108285E890E02CEFFC0120837B
:101ED00084E890E021E0FC01208389E890E023E0A1
:101EE000FC01208388E890E02FEFFC0120838BE841
:101EF00090E023E0FC0120838AE890E02FEFFC01D2
:101F000020838DE890E023E0FC0120838CE890E0C2
:101F10002FEFFC01208387E890E023E0FC01208381
:101F200086E890E02FEFFC01208380E890E02BEA28
:101F3000FC01208382E890E0FC01108281E890E0BF
:101F40002CE0FC012083DF91CF910895CF93DF93A4
:101F5000CDB7DEB7F8940E944E0F0E945B0F7894C5
:101F6000DF91CF9108950F931F93CF93DF9300D00C
:101F70000F920F92CDB7DEB78D8380E090E0DC0149
:101F800089839A83AB83BC838D81882F90E0A0E006
:101F9000B0E0BC01CD010E94AF16DC01CB01BC0159
:101FA000CD012BE734E14EEE5FE30E941616DC0113
:101FB000CB01BC01CD0120E030E04CE052E40E94B6
:101FC0008315DC01CB0189839A83AB83BC8389E8C9
:101FD00090E0FC01108208E810E069817A818B8131
:101FE0009C810E948316DC01CB01F80180830F9055
:101FF0000F900F900F900F90DF91CF911F910F9145
:1020000008950F931F93CF93DF9300D00F920F92F9
:10201000CDB7DEB78D8380E090E0DC0189839A83C1
:10202000AB83BC838D81882F90E0A0E0B0E0BC0141
:10203000CD010E94AF16DC01CB01BC01CD012BE725
:1020400034E14EEE5FE30E941616DC01CB01BC01C9
:10205000CD0120E030E04CE052E40E948315DC0129
:10206000CB0189839A83AB83BC838BE890E0FC012E
:1020700010820AE810E069817A818B819C810E943C
:102080008316DC01CB01F80180830F900F900F9035
:102090000F900F90DF91CF911F910F9108950F93A3
:1020A0001F93CF93DF9300D00F920F92CDB7DEB77F
:1020B0008D8380E090E0DC0189839A83AB83BC83CD
:1020C0008D81882F90E0A0E0B0E0BC01CD010E949E
:1020D000AF16DC01CB01BC01CD012BE734E14EEEA4
:1020E0005FE30E941616DC01CB01BC01CD0120E0AC
:1020F00030E04CE052E40E948315DC01CB0189837F
:102100009A83AB83BC838DE890E0FC0110820CE8DD
:1021100010E069817A818B819C810E948316DC01A9
:10212000CB01F80180830F900F900F900F900F90CC
:10213000DF91CF911F910F910895CF93DF93CDB78A
:10214000DEB789E890E023E0FC01208388E890E096
:102150002FEFFC012083DF91CF910895CF93DF9380
:10216000CDB7DEB78BE890E023E0FC0120838AE85E
:1021700090E02FEFFC012083DF91CF910895CF9362
:10218000DF93CDB7DEB78DE890E023E0FC0120833C
:102190008CE890E02FEFFC012083DF91CF91089530
:1021A000CF93DF93CDB7DEB787E290E027E230E050
:1021B000F9012081276FFC01208388E290E028E26A
:1021C00030E0F90120812078FC012083DF91CF915C
:1021D0000895CF93DF93CDB7DEB780E390E0FC01A5
:1021E000108281E390E0FC01108287E091E0FC0125
:1021F000108288E091E0FC011082DF91CF91089578
:10220000CF93DF93CDB7DEB70E94D0100E94E910C4
:102210000E94C20BDF91CF910895CF93DF93CDB78A
:10222000DEB781E291E0FC01108285E291E02FEFC0
:10223000FC01208384E291E021E0FC01208389E21B
:1022400091E0FC01108288E291E02FEFFC012083F5
:102250008BE291E0FC0110828AE291E02FEFFC0119
:1022600020838DE291E0FC0110828CE291E02FEF5F
:10227000FC01208380E291E029EAFC01208381E2D5
:1022800091E02BE0FC012083DF91CF910895CF9363
:10229000DF93CDB7DEB78AE790E0FC0110828BE7D1
:1022A00090E0FC0110828CE790E020E2FC012083AA
:1022B00080E590E020E8FC0120838AE790E026E8B2
:1022C000FC012083DF91CF910895CF93DF930F928C
:1022D0000F92CDB7DEB78A838A81883028F08BE7EA
:1022E00090E028E0FC0120838A8187708A838CE754
:1022F00090E02A812062FC0120838AE790E02AE7AF
:1023000030E0F90120812064FC01208300008AE78D
:1023100090E0FC018081882F90E0807190700097A0
:10232000B1F389E790E0FC01808189838AE790E03E
:102330002AE730E0F90120812061FC0120838BE74E
:1023400090E0FC01108289810F900F90DF91CF9176
:102350000895CF93DF9300D0CDB7DEB789836A832A
:102360004B838B810E94651180931E0280911E0217
:10237000282F30E089816A81A90123E030E00E94A2
:10238000DA0A0F900F900F90DF91CF910895CF93BD
:10239000DF93CDB7DEB7F8940E9400110E94471179
:1023A0000E940D117894DF91CF910895CF93DF9320
:1023B000CDB7DEB70E94C20BDF91CF910895CF93C6
:1023C000DF93CDB7DEB7F8940E94D6118EEE91E17F
:1023D000FC0119957894DF91CF910895CF93DF9305
:1023E000CDB7DEB781EC90E0FC01108280EC90E08C
:1023F000FC01108282EC90E026E0FC01208384EC5A
:1024000090E02FE5FC01208385EC90E0FC01108238
:1024100081EC90E028E9FC012083DF91CF910895C1
:102420000F931F93CF93DF930F920F92CDB7DEB729
:102430009A83898386E00E946511282F30E0898184
:102440009A81FC013183208389819A818C010E5FFE
:102450001F4F85E00E946511882F90E0F80191835D
:10246000808389819A818C010C5F1F4F84E00E94D8
:102470006511882F90E0F8019183808389819A818A
:10248000069626E930E0FC013183208389819A8118
:10249000089626E930E0FC013183208389819A8106
:1024A0000A9626E930E0FC013183208389819A81F4
:1024B0008C01045F1F4F88E00E946511882F90E017
:1024C000F8019183808389819A818C01025F1F4F7B
:1024D00087E00E946511882F90E0F8019183808346
:1024E0000F900F90DF91CF911F910F910895EF9270
:1024F000FF920F931F93CF93DF93CDB7DEB764970F
:102500000FB6F894DEBF0FBECDBF9A8B898B7C8B44
:102510006B8B80E090E0DC0189839A83AB83BC8382
:1025200080E090E0DC018D839E83AF83B8871C86BA
:102530001B861A861986C9C089859A85880F991FB6
:1025400029893A89820F931FFC0180819181843609
:1025500091050CF0B5C089859A85880F991F298946
:102560003A89820F931FFC0180819181AA2797FDF0
:10257000A095BA2FBC01CD010E94B1167B018C0140
:1025800049855A852DE230E0429FC001439F900D5E
:10259000529F900D1124AA2797FDA095BA2FBC0138
:1025A000CD010E94B116DC01CB01BC01CD012BEDA8
:1025B0003FE049E450E40E94CA17DC01CB01BC01B2
:1025C000CD0120E030E044E353E40E941616DC0124
:1025D000CB01BC01CD010E9413169B01AC01C801C7
:1025E000B7010E94CA17DC01CB019C01AD016981D2
:1025F0007A818B819C810E948315DC01CB018983C8
:102600009A83AB83BC8389859A85880F991F298912
:102610003A89820F931FFC0180819181AA2797FD3F
:10262000A095BA2FBC01CD010E94B1167B018C018F
:1026300049855A852DE230E0429FC001439F900DAD
:10264000529F900D1124AA2797FDA095BA2FBC0187
:10265000CD010E94B116DC01CB01BC01CD012BEDF7
:102660003FE049E450E40E94CA17DC01CB01BC0101
:10267000CD0120E030E044E353E40E941616DC0173
:10268000CB01BC01CD010E942D189B01AC01C801FA
:10269000B7010E94CA17DC01CB019C01AD016D811D
:1026A0007E818F8198850E948315DC01CB018D830B
:1026B0009E83AF83B8878B859C8501969C878B878B
:1026C00089859A8501969A87898789859A85883030
:1026D00091050CF431CF8B859C850196AA2797FD37
:1026E000A095BA2FBC01CD010E94B1169B01AC018F
:1026F00069817A818B819C810E941616DC01CB0155
:1027000089839A83AB83BC838B859C850196AA279A
:1027100097FDA095BA2FBC01CD010E94B1169B0177
:10272000AC016D817E818F8198850E941616DC0137
:10273000CB018D839E83AF83B88729813A814B81FA
:102740005C81CA01B9010E94CA17DC01CB017C017E
:102750008D012D813E814F815885CA01B9010E94AA
:10276000CA17DC01CB019C01AD01C801B7010E9471
:102770008315DC01CB01BC01CD010E943718DC01BF
:10278000CB01BC01CD010E947E16DC01CB01988BF0
:102790008F876D817E818F81988529813A814B81D8
:1027A0005C810E941616DC01CB01BC01CD010E94A8
:1027B000E715DC01CB01BC01CD0120E030E044E3B2
:1027C00053E40E94CA17DC01CB01BC01CD012BED03
:1027D0003FE049E450E40E941616DC01CB01BC0145
:1027E000CD010E947E16DC01CB019E878D8711E012
:1027F00069817A818B819C8120E030E0A9010E946F
:102800000F1688230CF010E01123D1F011E06D8138
:102810007E818F81988520E030E0A9010E94BF175A
:1028200018160CF010E0112359F02AE530E08D85E0
:102830009E85A901481B590BCA019E878D8724C01C
:1028400011E069817A818B819C8120E030E0A901CF
:102850000E940F1688230CF010E01123A9F011E05C
:102860006D817E818F81988520E030E0A9010E94F2
:102870000F1688230CF010E0112331F08D859E8512
:102880008C549F4F9E878D878B899C892F85388993
:10289000FC01318320838B899C8902962D853E859E
:1028A000FC013183208380E090E064960FB6F894B9
:1028B000DEBF0FBECDBFDF91CF911F910F91FF9073
:1028C000EF9008950F931F93CF93DF93CDB7DEB7AB
:1028D00064970FB6F894DEBF0FBECDBF9A8B898B7D
:1028E0007C8B6B8B1A82198298C089819A81880FA0
:1028F000991F29893A89820F931FFC018081918158
:102900009C0181E065E0A90123E030E00E94DA0A41
:1029100080E090E0AAEFB4E48B839C83AD83BE8318
:102920006B817C818D819E8126E636E646E655E404
:102930000E94CA17DC01CB018F839887A987BA87C9
:1029400011E06F81788589859A8520E030E040E844
:102950005FE30E940F1688230CF010E0112329F08A
:1029600081E090E09C878B8746C011E06F8178857D
:1029700089859A8520E03FEF4FE757E40E94BF1713
:1029800018160CF010E0112361F16B817C818D81B0
:102990009E8120E030E040E251E40E94CA17DC0151
:1029A000CB01BC01CD010E948316DC01CB019C87C9
:1029B0008B8712C080E791E09E878D878D859E85ED
:1029C0008C01C8010197F1F78C011E870D878B855B
:1029D0009C8501979C878B878B859C85009751F7F9
:1029E00017C06F81788589859A850E948316DC01DE
:1029F000CB019C878B878B859C85988B8F878F8558
:102A000098898C01F8013197F1F78F01188B0F87A6
:102A100089819A8101969A83898329813A818B8958
:102A20009C89281739070CF460CF64960FB6F89488
:102A3000DEBF0FBECDBFDF91CF911F910F910895E3
:102A4000CF93DF93CDB7DEB764970FB6F894DEBFB0
:102A50000FBECDBF0E94A60F0E94F40E0E94C711A8
:102A60000E94DF110E94BB000E94B106CE010196B8
:102A70000E941012CE01019668E070E00E9462147C
:102A80009E012F5E3F4FCE010196B9010E94771241
:102A90008B899C89992334F48B899C8988599E4F12
:102AA0009C8B8B8B89899A899C0181E061E0A901CB
:102AB00023E030E00E94DA0A8B899C899C0182E045
:102AC00061E0A90123E030E00E94DA0A8B899C8949
:102AD0000E946A0E89899A89880F991F9C01220F8A
:102AE000331F220F331F820F931F0E943E0E80E080
:102AF00090E064960FB6F894DEBF0FBECDBFDF91B5
:102B0000CF9108955058BB27AA270ED0EDC1B6D15A
:102B100030F0BBD120F031F49F3F11F41EF486C198
:102B20000EF4E095E7FB7CC1E92F00D280F3BA17E1
:102B3000620773078407950718F071F49EF518C2B1
:102B40000EF4E0950B2EBA2FA02D0B01B9019001C8
:102B50000C01CA01A0011124FF27591B99F0593F0C
:102B600050F4503E68F11A16F040A22F232F342F54
:102B70004427585FF3CF469537952795A795F040A2
:102B80005395C9F77EF41F16BA0B620B730B840BB7
:102B9000BAF09150A1F0FF0FBB1F661F771F881F6F
:102BA000C2F70EC0BA0F621F731F841F48F48795C7
:102BB00077956795B795F7959E3F08F0B3CF9395B6
:102BC000880F08F09927EE0F979587950895DF9362
:102BD000DD27B92FBF7740E85FE3161617064807D1
:102BE0005B0710F4D92FCFD19F938F937F936F936F
:102BF0007CD2E4EEF0E01DD177D12F913F914F913F
:102C00005F91D4D1DD2349F09058A2EA2AED3FE04C
:102C100049EC5FE3D0785D2787DFDF9165C1DCD0C9
:102C200008F481E0089539D1E3956FC10CD05CC1FF
:102C30002CD140F023D130F021F45F3F19F0F0C0E7
:102C4000511197C1F3C072D198F39923C9F3552359
:102C5000B1F3951B550BBB27AA276217730784078F
:102C600038F09F5F5F4F220F331F441FAA1FA9F345
:102C700033D00E2E3AF0E0E830D091505040E69537
:102C8000001CCAF729D0FE2F27D0660F771F881F98
:102C9000BB1F261737074807AB07B0E809F0BB0B87
:102CA000802DBF01FF2793585F4F2AF09E3F5105AB
:102CB00068F0B6C05EC15F3FECF3983EDCF38695EA
:102CC00077956795B795F7959F5FC9F7880F911D21
:102CD0009695879597F90895E1E0660F771F881F0D
:102CE000BB1F621773078407BA0720F0621B730BC0
:102CF000840BBA0BEE1F88F7E095089504D0689412
:102D0000B11137C108951AD188F09F5790F0B92FAB
:102D10009927B751A0F0D1F0660F771F881F991F30
:102D20001AF0BA95C9F712C0B13081F021D1B1E0E3
:102D300008951EC1672F782F8827B85F39F0B93FF3
:102D4000CCF3869577956795B395D9F73EF4909532
:102D50008095709561957F4F8F4F9F4F0895E894B0
:102D600009C097FB3EF490958095709561957F4FD3
:102D70008F4F9F4F9923A9F0F92F96E9BB27939581
:102D8000F695879577956795B795F111F8CFFAF491
:102D9000BB0F11F460FF1BC06F5F7F4F8F4F9F4FC2
:102DA00016C0882311F096E911C0772321F09EE820
:102DB000872F762F05C0662371F096E8862F70E086
:102DC00060E02AF09A95660F771F881FDAF7880F60
:102DD0009695879597F90895990F0008550FAA0BB6
:102DE000E0E8FEEF16161706E807F907C0F012161E
:102DF0001306E407F50798F0621B730B840B950B21
:102E000039F40A2661F0232B242B252B21F4089575
:102E10000A2609F4A140A6958FEF811D811D089512
:102E200097F99F6780E870E060E008959FEF80EC7D
:102E30000895DF93CF931F930F93FF92EF92DF924A
:102E40007B018C01689405C0DA2EEF01AFD0FE0142
:102E5000E894A5912591359145915591AEF3EF01F7
:102E600063DEFE019701A801DA9479F7DF90EF9015
:102E7000FF900F911F91CF91DF91089500240A9444
:102E80001616170618060906089500240A94121645
:102E90001306140605060895C9CF50D0E8F3E89448
:102EA000E0E0BB279F57F0F02AED3FE049EC06C079
:102EB000EE0FBB0F661F771F881F28F0B23A62071C
:102EC0007307840728F0B25A620B730B840BE395E7
:102ED0009A9572F7803830F49A95BB0F661F771F6A
:102EE000881FD2F7904806C1092E0394000C11F4F4
:102EF000882352F0BB0F40F4BF2B11F460FF04C0D5
:102F00006F5F7F4F8F4F9F4F0895EF93E0FF06C095
:102F1000A2EA2AED3FE049EC5FEB06DEE5DF0F9029
:102F2000039401FC9058E1E1F1E0F7C057FD90589F
:102F3000440F551F59F05F3F71F04795880F97FB7D
:102F4000991F61F09F3F79F0879508951216130637
:102F50001406551FF2CF4695F1DF08C01616170666
:102F60001806991FF1CF869571056105089408959B
:102F7000E894BB2766277727CB0197F908952CDFC4
:102F800008F48FEF08959B01AC0160E070E080E8E9
:102F90009FE34CCE0BD0A8CF71DF28F076DF18F07E
:102FA000952309F03DCF42CF1124E3CFBFDFA0F33B
:102FB000959FD1F3950F50E0551F629FF001729FCE
:102FC000BB27F00DB11D639FAA27F00DB11DAA1FED
:102FD000649F6627B00DA11D661F829F2227B00D3A
:102FE000A11D621F739FB00DA11D621F839FA00DC5
:102FF000611D221F749F3327A00D611D231F849F15
:10300000600D211D822F762F6A2F11249F5750406B
:103010008AF0E1F088234AF0EE0FFF1FBB1F661F06
:10302000771F881F91505040A9F79E3F510570F0BF
:10303000F7CE9FCF5F3FECF3983EDCF38695779514
:103040006795B795F795E7959F5FC1F7FE2B880FBA
:10305000911D9695879597F908959F931EDF0F9080
:1030600007FCEE5F52CF11F40EF4E0CE41C066DFF4
:10307000D0F39923D9F3CEF39F57550B87FF46D052
:103080000024A0E640EA900180585695979528F4D0
:10309000805C660F771F881F20F0261737074807C8
:1030A00030F4621B730B840B202931294A2BA6951F
:1030B00017940794202531254A2758F7660F771F64
:1030C000881F20F026173707480730F4620B730B70
:1030D000840B200D311D411DA09581F7B901842F6E
:1030E0009158880F9695879508959B01AC0152CF12
:1030F0009F3F31F0915020F4879577956795B7956C
:10310000880F911D9695879597F908959150504095
:10311000660F771F881FD2F708959F938F937F9331
:103120006F93FF93EF939B01AC0134DFEF91FF911D
:1031300080DE2F913F914F915F912CCFAA1BBB1B3B
:1031400051E107C0AA1FBB1FA617B70710F0A61BA7
:10315000B70B881F991F5A95A9F780959095BC01C8
:08316000CD010895F894FFCFA2
:00000001FF
