:100000000C942A000C9434000C9434000C943400AA
:100010000C9434000C9434000C9434000C94340090
:100020000C9434000C9434000C9434000C94340080
:100030000C9434000C9434000C9434000C94340070
:100040000C9434000C9434000C9434000C94340060
:100050000C94340011241FBECFE5D4E0DEBFCDBF29
:100060000E9445000C945C000C940000BB9AC3985D
:100070000895BB9AC3980895C3980895C39A0895A4
:10008000F894BB9AC3987894089520E931E0F894E5
:10009000BB9AC3987894C39888E99AE3F901319799
:1000A000F1F70197D9F7C39A88E99AE3F9013197F3
:0C00B000F1F70197D9F7EBCFF894FFCFE0
:00000001FF
